{
  "transactions": [
    {
      "hash": "0xd63e4c73ef71d55fa197d6b09295c9a57b3c1a043126d4844a957302d68e4153",
      "transactionType": "CALL",
      "contractName": null,
      "contractAddress": "0xd3482a9b5a5ab89174ea6475e06c68d772885bd7",
      "function": "setFeesCollector(address)",
      "arguments": [
        "0xa42f0365f78371C4C80e5CB6ADf25ABE4c58D8c5"
      ],
      "transaction": {
        "from": "0x5c14608e0b38ee4473fe2e973027f62a73f088e4",
        "to": "0xd3482a9b5a5ab89174ea6475e06c68d772885bd7",
        "gas": "0x9e20",
        "value": "0x0",
        "input": "0x373071f2000000000000000000000000a42f0365f78371c4c80e5cb6adf25abe4c58d8c5",
        "nonce": "0x1a",
        "chainId": "0xaa36a7"
      },
      "additionalContracts": [],
      "isFixedGasLimit": false
    },
    {
      "hash": "0xf30d6ef590b206207948e14b39a87056c5885176b01869c38e47d36ea3704792",
      "transactionType": "CALL",
      "contractName": null,
      "contractAddress": "0xd3482a9b5a5ab89174ea6475e06c68d772885bd7",
      "function": "setFundsCollector(address)",
      "arguments": [
        "0x2599E05710143A2F51eB31A938A37500b18405Ef"
      ],
      "transaction": {
        "from": "0x5c14608e0b38ee4473fe2e973027f62a73f088e4",
        "to": "0xd3482a9b5a5ab89174ea6475e06c68d772885bd7",
        "gas": "0x1092c",
        "value": "0x0",
        "input": "0xe24b71390000000000000000000000002599e05710143a2f51eb31a938a37500b18405ef",
        "nonce": "0x1b",
        "chainId": "0xaa36a7"
      },
      "additionalContracts": [],
      "isFixedGasLimit": false
    }
  ],
  "receipts": [
    {
      "status": "0x1",
      "cumulativeGasUsed": "0x29a9f49",
      "logs": [],
      "logsBloom": "0x00000000000000000000000000000000000000000000000000000000000000000000000000000000000000000000000000000000000000000000000000000000000000000000000000000000000000000000000000000000000000000000000000000000000000000000000000000000000000000000000000000000000000000000000000000000000000000000000000000000000000000000000000000000000000000000000000000000000000000000000000000000000000000000000000000000000000000000000000000000000000000000000000000000000000000000000000000000000000000000000000000000000000000000000000000000",
      "type": "0x2",
      "transactionHash": "0xd63e4c73ef71d55fa197d6b09295c9a57b3c1a043126d4844a957302d68e4153",
      "transactionIndex": "0x63",
      "blockHash": "0xfcba500a27528799236fd0deef256ad231b6333a0118a02b4a7fc8cf00e5fb51",
      "blockNumber": "0x9510f3",
      "gasUsed": "0x727c",
      "effectiveGasPrice": "0x1172a03",
      "from": "0x5c14608e0b38ee4473fe2e973027f62a73f088e4",
      "to": "0xd3482a9b5a5ab89174ea6475e06c68d772885bd7",
      "contractAddress": null
    },
    {
      "status": "0x1",
      "cumulativeGasUsed": "0x29b549a",
      "logs": [],
      "logsBloom": "0x00000000000000000000000000000000000000000000000000000000000000000000000000000000000000000000000000000000000000000000000000000000000000000000000000000000000000000000000000000000000000000000000000000000000000000000000000000000000000000000000000000000000000000000000000000000000000000000000000000000000000000000000000000000000000000000000000000000000000000000000000000000000000000000000000000000000000000000000000000000000000000000000000000000000000000000000000000000000000000000000000000000000000000000000000000000",
      "type": "0x2",
      "transactionHash": "0xf30d6ef590b206207948e14b39a87056c5885176b01869c38e47d36ea3704792",
      "transactionIndex": "0x64",
      "blockHash": "0xfcba500a27528799236fd0deef256ad231b6333a0118a02b4a7fc8cf00e5fb51",
      "blockNumber": "0x9510f3",
      "gasUsed": "0xb551",
      "effectiveGasPrice": "0x1172a03",
      "from": "0x5c14608e0b38ee4473fe2e973027f62a73f088e4",
      "to": "0xd3482a9b5a5ab89174ea6475e06c68d772885bd7",
      "contractAddress": null
    }
  ],
  "libraries": [],
  "pending": [],
  "returns": {},
  "timestamp": 1764874285547,
  "chain": 11155111,
  "commit": "771a647"
}