{
  "transactions": [
    {
      "hash": "0xb2a33623a0725231411301cabc9ec16e3d12df728262decc37df10ec4122a4ae",
      "transactionType": "CALL",
      "contractName": null,
      "contractAddress": "0x936a9bce52bf0841b372aa9a7ba8f243b915271a",
      "function": "transfer(address,uint256)",
      "arguments": [
        "0xc0d5F054C3970838a15B23DD22bF629e8C329B06",
        "1000000000000000000000000"
      ],
      "transaction": {
        "from": "0x5c14608e0b38ee4473fe2e973027f62a73f088e4",
        "to": "0x936a9bce52bf0841b372aa9a7ba8f243b915271a",
        "gas": "0x11a80",
        "value": "0x0",
        "input": "0xa9059cbb000000000000000000000000c0d5f054c3970838a15b23dd22bf629e8c329b0600000000000000000000000000000000000000000000d3c21bcecceda1000000",
        "nonce": "0x17",
        "chainId": "0xaa36a7"
      },
      "additionalContracts": [],
      "isFixedGasLimit": false
    }
  ],
  "receipts": [
    {
      "status": "0x1",
      "cumulativeGasUsed": "0x6785b1",
      "logs": [
        {
          "address": "0x936a9bce52bf0841b372aa9a7ba8f243b915271a",
          "topics": [
            "0xddf252ad1be2c89b69c2b068fc378daa952ba7f163c4a11628f55a4df523b3ef",
            "0x0000000000000000000000005c14608e0b38ee4473fe2e973027f62a73f088e4",
            "0x000000000000000000000000c0d5f054c3970838a15b23dd22bf629e8c329b06"
          ],
          "data": "0x00000000000000000000000000000000000000000000d3c21bcecceda1000000",
          "blockHash": "0x8b7dce81d340fb1d03b44bf610b9a25a53d777c8be8643a26ef523255dc7162c",
          "blockNumber": "0x950fec",
          "blockTimestamp": "0x6931cbcc",
          "transactionHash": "0xb2a33623a0725231411301cabc9ec16e3d12df728262decc37df10ec4122a4ae",
          "transactionIndex": "0x37",
          "logIndex": "0x57",
          "removed": false
        }
      ],
      "logsBloom": "0x00000000000000000000000000000000000000000000000000000000000000000000000000000000000000000000000000000000000000000000000000000002000000000000000000000008000000000000000000000000000000000000000000000000000000000000000000000000000000000020000000000010080000000000000000000000000000000000000000000000000000000000000000000000000000000000000000000000000000000000000000000000000000000000000000000002000400000000000000000000000001000000000000000000000000002000000000000000000000000001000040000000000000000100000000000000",
      "type": "0x2",
      "transactionHash": "0xb2a33623a0725231411301cabc9ec16e3d12df728262decc37df10ec4122a4ae",
      "transactionIndex": "0x37",
      "blockHash": "0x8b7dce81d340fb1d03b44bf610b9a25a53d777c8be8643a26ef523255dc7162c",
      "blockNumber": "0x950fec",
      "gasUsed": "0xcc87",
      "effectiveGasPrice": "0x1f1716",
      "from": "0x5c14608e0b38ee4473fe2e973027f62a73f088e4",
      "to": "0x936a9bce52bf0841b372aa9a7ba8f243b915271a",
      "contractAddress": null
    }
  ],
  "libraries": [],
  "pending": [],
  "returns": {},
  "timestamp": 1764871117114,
  "chain": 11155111,
  "commit": "771a647"
}