{
  "transactions": [
    {
      "hash": "0x269d11b6ad6e49395f2e5251813c28a2925fd8861d2b098a01bf484661227b39",
      "transactionType": "CALL",
      "contractName": null,
      "contractAddress": "0xd3482a9b5a5ab89174ea6475e06c68d772885bd7",
      "function": "claim(uint256[])",
      "arguments": [
        "[9]"
      ],
      "transaction": {
        "from": "0xf765ad78a700d61be2a4146d95cd4709d2bbe722",
        "to": "0xd3482a9b5a5ab89174ea6475e06c68d772885bd7",
        "gas": "0x2194b",
        "value": "0x0",
        "input": "0x6ba4c138000000000000000000000000000000000000000000000000000000000000002000000000000000000000000000000000000000000000000000000000000000010000000000000000000000000000000000000000000000000000000000000009",
        "nonce": "0x3",
        "chainId": "0xaa36a7"
      },
      "additionalContracts": [],
      "isFixedGasLimit": false
    }
  ],
  "receipts": [
    {
      "status": "0x1",
      "cumulativeGasUsed": "0x33f4bdf",
      "logs": [
        {
          "address": "0xd3482a9b5a5ab89174ea6475e06c68d772885bd7",
          "topics": [
            "0x8c5be1e5ebec7d5bd14f71427d1e84f3dd0314c0f7b2291e5b200ac8c7c3b925",
            "0x000000000000000000000000f765ad78a700d61be2a4146d95cd4709d2bbe722",
            "0x0000000000000000000000000000000000000000000000000000000000000000",
            "0x0000000000000000000000000000000000000000000000000000000000000009"
          ],
          "data": "0x",
          "blockHash": "0xe79a8dec7359b227037781094622aec222879cea9a8b75ad40a574cabe5f44e0",
          "blockNumber": "0x951273",
          "blockTimestamp": "0x6931ea2c",
          "transactionHash": "0x269d11b6ad6e49395f2e5251813c28a2925fd8861d2b098a01bf484661227b39",
          "transactionIndex": "0x8c",
          "logIndex": "0x132",
          "removed": false
        },
        {
          "address": "0xd3482a9b5a5ab89174ea6475e06c68d772885bd7",
          "topics": [
            "0xddf252ad1be2c89b69c2b068fc378daa952ba7f163c4a11628f55a4df523b3ef",
            "0x000000000000000000000000f765ad78a700d61be2a4146d95cd4709d2bbe722",
            "0x0000000000000000000000000000000000000000000000000000000000000000",
            "0x0000000000000000000000000000000000000000000000000000000000000009"
          ],
          "data": "0x",
          "blockHash": "0xe79a8dec7359b227037781094622aec222879cea9a8b75ad40a574cabe5f44e0",
          "blockNumber": "0x951273",
          "blockTimestamp": "0x6931ea2c",
          "transactionHash": "0x269d11b6ad6e49395f2e5251813c28a2925fd8861d2b098a01bf484661227b39",
          "transactionIndex": "0x8c",
          "logIndex": "0x133",
          "removed": false
        },
        {
          "address": "0xd3482a9b5a5ab89174ea6475e06c68d772885bd7",
          "topics": [
            "0x47cee97cb7acd717b3c0aa1435d004cd5b3c8c57d70dbceb4e4458bbd60e39d4",
            "0x000000000000000000000000f765ad78a700d61be2a4146d95cd4709d2bbe722",
            "0x0000000000000000000000000000000000000000000000000000000000000009"
          ],
          "data": "0x",
          "blockHash": "0xe79a8dec7359b227037781094622aec222879cea9a8b75ad40a574cabe5f44e0",
          "blockNumber": "0x951273",
          "blockTimestamp": "0x6931ea2c",
          "transactionHash": "0x269d11b6ad6e49395f2e5251813c28a2925fd8861d2b098a01bf484661227b39",
          "transactionIndex": "0x8c",
          "logIndex": "0x134",
          "removed": false
        },
        {
          "address": "0x936a9bce52bf0841b372aa9a7ba8f243b915271a",
          "topics": [
            "0x8c5be1e5ebec7d5bd14f71427d1e84f3dd0314c0f7b2291e5b200ac8c7c3b925",
            "0x0000000000000000000000002599e05710143a2f51eb31a938a37500b18405ef",
            "0x000000000000000000000000d3482a9b5a5ab89174ea6475e06c68d772885bd7"
          ],
          "data": "0x00000000000000000000000000000000000000000000d3bc6aa3dd3df8fc0000",
          "blockHash": "0xe79a8dec7359b227037781094622aec222879cea9a8b75ad40a574cabe5f44e0",
          "blockNumber": "0x951273",
          "blockTimestamp": "0x6931ea2c",
          "transactionHash": "0x269d11b6ad6e49395f2e5251813c28a2925fd8861d2b098a01bf484661227b39",
          "transactionIndex": "0x8c",
          "logIndex": "0x135",
          "removed": false
        },
        {
          "address": "0x936a9bce52bf0841b372aa9a7ba8f243b915271a",
          "topics": [
            "0xddf252ad1be2c89b69c2b068fc378daa952ba7f163c4a11628f55a4df523b3ef",
            "0x0000000000000000000000002599e05710143a2f51eb31a938a37500b18405ef",
            "0x000000000000000000000000f765ad78a700d61be2a4146d95cd4709d2bbe722"
          ],
          "data": "0x000000000000000000000000000000000000000000000005b12aefafa8040000",
          "blockHash": "0xe79a8dec7359b227037781094622aec222879cea9a8b75ad40a574cabe5f44e0",
          "blockNumber": "0x951273",
          "blockTimestamp": "0x6931ea2c",
          "transactionHash": "0x269d11b6ad6e49395f2e5251813c28a2925fd8861d2b098a01bf484661227b39",
          "transactionIndex": "0x8c",
          "logIndex": "0x136",
          "removed": false
        }
      ],
      "logsBloom": "0x00000000000000000000000000000000000000000000000000000000000000000000040000000000000000000000000000000010000010008100000000200000000000000000000000000008000000000000000000000000000000000000000000000000020000000000000000000800000000000020000000000010000000000000000000000000000000000000000000001000000000400000000000000000020000400000000000200000000000000000400000020000000000001200000000000002000000000000000000000000000001000000000000000000000020000110000000000000000000000000000040000000010000000000000000800080",
      "type": "0x2",
      "transactionHash": "0x269d11b6ad6e49395f2e5251813c28a2925fd8861d2b098a01bf484661227b39",
      "transactionIndex": "0x8c",
      "blockHash": "0xe79a8dec7359b227037781094622aec222879cea9a8b75ad40a574cabe5f44e0",
      "blockNumber": "0x951273",
      "gasUsed": "0x184ff",
      "effectiveGasPrice": "0x1e7722",
      "from": "0xf765ad78a700d61be2a4146d95cd4709d2bbe722",
      "to": "0xd3482a9b5a5ab89174ea6475e06c68d772885bd7",
      "contractAddress": null
    }
  ],
  "libraries": [],
  "pending": [],
  "returns": {},
  "timestamp": 1764878894287,
  "chain": 11155111,
  "commit": "771a647"
}