{
  "transactions": [
    {
      "hash": "0x4c0fd9e5227a34858c6a1b156723faf0cbed8c0d4f7d6d946c34f4be6e65569a",
      "transactionType": "CALL",
      "contractName": null,
      "contractAddress": "0xd3482a9b5a5ab89174ea6475e06c68d772885bd7",
      "function": "setCanBuy(bool)",
      "arguments": [
        "true"
      ],
      "transaction": {
        "from": "0x5c14608e0b38ee4473fe2e973027f62a73f088e4",
        "to": "0xd3482a9b5a5ab89174ea6475e06c68d772885bd7",
        "gas": "0x8da7",
        "value": "0x0",
        "input": "0x2c06862b0000000000000000000000000000000000000000000000000000000000000001",
        "nonce": "0x1d",
        "chainId": "0xaa36a7"
      },
      "additionalContracts": [],
      "isFixedGasLimit": false
    },
    {
      "hash": "0x25fda93258f77699151ba4b37dc9ef7a4838e0739871e52c96fe2da598bb1a66",
      "transactionType": "CALL",
      "contractName": null,
      "contractAddress": "0xd3482a9b5a5ab89174ea6475e06c68d772885bd7",
      "function": "setCanClaim(bool)",
      "arguments": [
        "true"
      ],
      "transaction": {
        "from": "0x5c14608e0b38ee4473fe2e973027f62a73f088e4",
        "to": "0xd3482a9b5a5ab89174ea6475e06c68d772885bd7",
        "gas": "0xa5ba",
        "value": "0x0",
        "input": "0xc503101e0000000000000000000000000000000000000000000000000000000000000001",
        "nonce": "0x1e",
        "chainId": "0xaa36a7"
      },
      "additionalContracts": [],
      "isFixedGasLimit": false
    },
    {
      "hash": "0x8adabb13a5f892b412861236df63f32ed0587d1ac578349329d862dd015e20de",
      "transactionType": "CALL",
      "contractName": null,
      "contractAddress": "0xd3482a9b5a5ab89174ea6475e06c68d772885bd7",
      "function": "setCanTrade(bool)",
      "arguments": [
        "true"
      ],
      "transaction": {
        "from": "0x5c14608e0b38ee4473fe2e973027f62a73f088e4",
        "to": "0xd3482a9b5a5ab89174ea6475e06c68d772885bd7",
        "gas": "0x9d01",
        "value": "0x0",
        "input": "0x0f959bb70000000000000000000000000000000000000000000000000000000000000001",
        "nonce": "0x1f",
        "chainId": "0xaa36a7"
      },
      "additionalContracts": [],
      "isFixedGasLimit": false
    },
    {
      "hash": "0xe79bba06c0b6b3602560de516ecd1d9bf25adfd8eaebcbb7e79c7757572d7bd2",
      "transactionType": "CALL",
      "contractName": null,
      "contractAddress": "0xd3482a9b5a5ab89174ea6475e06c68d772885bd7",
      "function": "setMaxValueToRaise(uint256)",
      "arguments": [
        "2000000000000000000000000"
      ],
      "transaction": {
        "from": "0x5c14608e0b38ee4473fe2e973027f62a73f088e4",
        "to": "0xd3482a9b5a5ab89174ea6475e06c68d772885bd7",
        "gas": "0x9c80",
        "value": "0x0",
        "input": "0xc658408100000000000000000000000000000000000000000001a784379d99db42000000",
        "nonce": "0x20",
        "chainId": "0xaa36a7"
      },
      "additionalContracts": [],
      "isFixedGasLimit": false
    },
    {
      "hash": "0xdf011ceaf2720d473d7df6882eb62e1275d85a7d709c77b63166dbb4b0246493",
      "transactionType": "CALL",
      "contractName": null,
      "contractAddress": "0xd3482a9b5a5ab89174ea6475e06c68d772885bd7",
      "function": "setBuyFee(uint16)",
      "arguments": [
        "200"
      ],
      "transaction": {
        "from": "0x5c14608e0b38ee4473fe2e973027f62a73f088e4",
        "to": "0xd3482a9b5a5ab89174ea6475e06c68d772885bd7",
        "gas": "0xa5d2",
        "value": "0x0",
        "input": "0x70c4767100000000000000000000000000000000000000000000000000000000000000c8",
        "nonce": "0x21",
        "chainId": "0xaa36a7"
      },
      "additionalContracts": [],
      "isFixedGasLimit": false
    },
    {
      "hash": "0x64ef1d46603a9c36bda7eb7a8a9391de93e2f8d80569eb62c624767f4a76c219",
      "transactionType": "CALL",
      "contractName": null,
      "contractAddress": "0xd3482a9b5a5ab89174ea6475e06c68d772885bd7",
      "function": "setTradeFee(uint16)",
      "arguments": [
        "300"
      ],
      "transaction": {
        "from": "0x5c14608e0b38ee4473fe2e973027f62a73f088e4",
        "to": "0xd3482a9b5a5ab89174ea6475e06c68d772885bd7",
        "gas": "0xa60c",
        "value": "0x0",
        "input": "0x9fdccfb8000000000000000000000000000000000000000000000000000000000000012c",
        "nonce": "0x22",
        "chainId": "0xaa36a7"
      },
      "additionalContracts": [],
      "isFixedGasLimit": false
    },
    {
      "hash": "0x11bf6dddb6299eadfcb81448fe02a02da3217186257a2aa4bb05cc71d7cf8469",
      "transactionType": "CALL",
      "contractName": null,
      "contractAddress": "0xd3482a9b5a5ab89174ea6475e06c68d772885bd7",
      "function": "setMaxBatchCount(uint16)",
      "arguments": [
        "12"
      ],
      "transaction": {
        "from": "0x5c14608e0b38ee4473fe2e973027f62a73f088e4",
        "to": "0xd3482a9b5a5ab89174ea6475e06c68d772885bd7",
        "gas": "0xa65d",
        "value": "0x0",
        "input": "0x432bd3f8000000000000000000000000000000000000000000000000000000000000000c",
        "nonce": "0x23",
        "chainId": "0xaa36a7"
      },
      "additionalContracts": [],
      "isFixedGasLimit": false
    },
    {
      "hash": "0x46cbcc60c28daf8579175ff9ebf742d74f058b212c4d54196fd26f5856f2a4f3",
      "transactionType": "CALL",
      "contractName": null,
      "contractAddress": "0xd3482a9b5a5ab89174ea6475e06c68d772885bd7",
      "function": "setProfitToPay(uint32)",
      "arguments": [
        "500"
      ],
      "transaction": {
        "from": "0x5c14608e0b38ee4473fe2e973027f62a73f088e4",
        "to": "0xd3482a9b5a5ab89174ea6475e06c68d772885bd7",
        "gas": "0x8e12",
        "value": "0x0",
        "input": "0xd5d603f600000000000000000000000000000000000000000000000000000000000001f4",
        "nonce": "0x24",
        "chainId": "0xaa36a7"
      },
      "additionalContracts": [],
      "isFixedGasLimit": false
    }
  ],
  "receipts": [
    {
      "status": "0x1",
      "cumulativeGasUsed": "0x5a895c",
      "logs": [],
      "logsBloom": "0x00000000000000000000000000000000000000000000000000000000000000000000000000000000000000000000000000000000000000000000000000000000000000000000000000000000000000000000000000000000000000000000000000000000000000000000000000000000000000000000000000000000000000000000000000000000000000000000000000000000000000000000000000000000000000000000000000000000000000000000000000000000000000000000000000000000000000000000000000000000000000000000000000000000000000000000000000000000000000000000000000000000000000000000000000000000",
      "type": "0x2",
      "transactionHash": "0x4c0fd9e5227a34858c6a1b156723faf0cbed8c0d4f7d6d946c34f4be6e65569a",
      "transactionIndex": "0x30",
      "blockHash": "0x786061122ef4c19c70147a07cda4df3907bb05da0ee7f4867fd1f82c73b27266",
      "blockNumber": "0x9511c6",
      "gasUsed": "0x668f",
      "effectiveGasPrice": "0x1f59a5",
      "from": "0x5c14608e0b38ee4473fe2e973027f62a73f088e4",
      "to": "0xd3482a9b5a5ab89174ea6475e06c68d772885bd7",
      "contractAddress": null
    },
    {
      "status": "0x1",
      "cumulativeGasUsed": "0x5afaae",
      "logs": [],
      "logsBloom": "0x00000000000000000000000000000000000000000000000000000000000000000000000000000000000000000000000000000000000000000000000000000000000000000000000000000000000000000000000000000000000000000000000000000000000000000000000000000000000000000000000000000000000000000000000000000000000000000000000000000000000000000000000000000000000000000000000000000000000000000000000000000000000000000000000000000000000000000000000000000000000000000000000000000000000000000000000000000000000000000000000000000000000000000000000000000000",
      "type": "0x2",
      "transactionHash": "0xdf011ceaf2720d473d7df6882eb62e1275d85a7d709c77b63166dbb4b0246493",
      "transactionIndex": "0x31",
      "blockHash": "0x786061122ef4c19c70147a07cda4df3907bb05da0ee7f4867fd1f82c73b27266",
      "blockNumber": "0x9511c6",
      "gasUsed": "0x7152",
      "effectiveGasPrice": "0x1f59a5",
      "from": "0x5c14608e0b38ee4473fe2e973027f62a73f088e4",
      "to": "0xd3482a9b5a5ab89174ea6475e06c68d772885bd7",
      "contractAddress": null
    },
    {
      "status": "0x1",
      "cumulativeGasUsed": "0x5b6c5a",
      "logs": [],
      "logsBloom": "0x00000000000000000000000000000000000000000000000000000000000000000000000000000000000000000000000000000000000000000000000000000000000000000000000000000000000000000000000000000000000000000000000000000000000000000000000000000000000000000000000000000000000000000000000000000000000000000000000000000000000000000000000000000000000000000000000000000000000000000000000000000000000000000000000000000000000000000000000000000000000000000000000000000000000000000000000000000000000000000000000000000000000000000000000000000000",
      "type": "0x2",
      "transactionHash": "0x64ef1d46603a9c36bda7eb7a8a9391de93e2f8d80569eb62c624767f4a76c219",
      "transactionIndex": "0x32",
      "blockHash": "0x786061122ef4c19c70147a07cda4df3907bb05da0ee7f4867fd1f82c73b27266",
      "blockNumber": "0x9511c6",
      "gasUsed": "0x71ac",
      "effectiveGasPrice": "0x1f59a5",
      "from": "0x5c14608e0b38ee4473fe2e973027f62a73f088e4",
      "to": "0xd3482a9b5a5ab89174ea6475e06c68d772885bd7",
      "contractAddress": null
    },
    {
      "status": "0x1",
      "cumulativeGasUsed": "0x984568",
      "logs": [],
      "logsBloom": "0x00000000000000000000000000000000000000000000000000000000000000000000000000000000000000000000000000000000000000000000000000000000000000000000000000000000000000000000000000000000000000000000000000000000000000000000000000000000000000000000000000000000000000000000000000000000000000000000000000000000000000000000000000000000000000000000000000000000000000000000000000000000000000000000000000000000000000000000000000000000000000000000000000000000000000000000000000000000000000000000000000000000000000000000000000000000",
      "type": "0x2",
      "transactionHash": "0x11bf6dddb6299eadfcb81448fe02a02da3217186257a2aa4bb05cc71d7cf8469",
      "transactionIndex": "0x39",
      "blockHash": "0x77713069c20725f84b5ff2887b36a1ed7f7e0d127dcde6a14dc09c22815bdf77",
      "blockNumber": "0x9511ca",
      "gasUsed": "0x714f",
      "effectiveGasPrice": "0x1d4d74",
      "from": "0x5c14608e0b38ee4473fe2e973027f62a73f088e4",
      "to": "0xd3482a9b5a5ab89174ea6475e06c68d772885bd7",
      "contractAddress": null
    },
    {
      "status": "0x1",
      "cumulativeGasUsed": "0x98b6ca",
      "logs": [],
      "logsBloom": "0x00000000000000000000000000000000000000000000000000000000000000000000000000000000000000000000000000000000000000000000000000000000000000000000000000000000000000000000000000000000000000000000000000000000000000000000000000000000000000000000000000000000000000000000000000000000000000000000000000000000000000000000000000000000000000000000000000000000000000000000000000000000000000000000000000000000000000000000000000000000000000000000000000000000000000000000000000000000000000000000000000000000000000000000000000000000",
      "type": "0x2",
      "transactionHash": "0x8adabb13a5f892b412861236df63f32ed0587d1ac578349329d862dd015e20de",
      "transactionIndex": "0x3a",
      "blockHash": "0x77713069c20725f84b5ff2887b36a1ed7f7e0d127dcde6a14dc09c22815bdf77",
      "blockNumber": "0x9511ca",
      "gasUsed": "0x7162",
      "effectiveGasPrice": "0x1d4d74",
      "from": "0x5c14608e0b38ee4473fe2e973027f62a73f088e4",
      "to": "0xd3482a9b5a5ab89174ea6475e06c68d772885bd7",
      "contractAddress": null
    },
    {
      "status": "0x1",
      "cumulativeGasUsed": "0x992854",
      "logs": [],
      "logsBloom": "0x00000000000000000000000000000000000000000000000000000000000000000000000000000000000000000000000000000000000000000000000000000000000000000000000000000000000000000000000000000000000000000000000000000000000000000000000000000000000000000000000000000000000000000000000000000000000000000000000000000000000000000000000000000000000000000000000000000000000000000000000000000000000000000000000000000000000000000000000000000000000000000000000000000000000000000000000000000000000000000000000000000000000000000000000000000000",
      "type": "0x2",
      "transactionHash": "0x46cbcc60c28daf8579175ff9ebf742d74f058b212c4d54196fd26f5856f2a4f3",
      "transactionIndex": "0x3b",
      "blockHash": "0x77713069c20725f84b5ff2887b36a1ed7f7e0d127dcde6a14dc09c22815bdf77",
      "blockNumber": "0x9511ca",
      "gasUsed": "0x718a",
      "effectiveGasPrice": "0x1d4d74",
      "from": "0x5c14608e0b38ee4473fe2e973027f62a73f088e4",
      "to": "0xd3482a9b5a5ab89174ea6475e06c68d772885bd7",
      "contractAddress": null
    },
    {
      "status": "0x1",
      "cumulativeGasUsed": "0x999a15",
      "logs": [],
      "logsBloom": "0x00000000000000000000000000000000000000000000000000000000000000000000000000000000000000000000000000000000000000000000000000000000000000000000000000000000000000000000000000000000000000000000000000000000000000000000000000000000000000000000000000000000000000000000000000000000000000000000000000000000000000000000000000000000000000000000000000000000000000000000000000000000000000000000000000000000000000000000000000000000000000000000000000000000000000000000000000000000000000000000000000000000000000000000000000000000",
      "type": "0x2",
      "transactionHash": "0x25fda93258f77699151ba4b37dc9ef7a4838e0739871e52c96fe2da598bb1a66",
      "transactionIndex": "0x3c",
      "blockHash": "0x77713069c20725f84b5ff2887b36a1ed7f7e0d127dcde6a14dc09c22815bdf77",
      "blockNumber": "0x9511ca",
      "gasUsed": "0x71c1",
      "effectiveGasPrice": "0x1d4d74",
      "from": "0x5c14608e0b38ee4473fe2e973027f62a73f088e4",
      "to": "0xd3482a9b5a5ab89174ea6475e06c68d772885bd7",
      "contractAddress": null
    },
    {
      "status": "0x1",
      "cumulativeGasUsed": "0x9a00f1",
      "logs": [],
      "logsBloom": "0x00000000000000000000000000000000000000000000000000000000000000000000000000000000000000000000000000000000000000000000000000000000000000000000000000000000000000000000000000000000000000000000000000000000000000000000000000000000000000000000000000000000000000000000000000000000000000000000000000000000000000000000000000000000000000000000000000000000000000000000000000000000000000000000000000000000000000000000000000000000000000000000000000000000000000000000000000000000000000000000000000000000000000000000000000000000",
      "type": "0x2",
      "transactionHash": "0xe79bba06c0b6b3602560de516ecd1d9bf25adfd8eaebcbb7e79c7757572d7bd2",
      "transactionIndex": "0x3d",
      "blockHash": "0x77713069c20725f84b5ff2887b36a1ed7f7e0d127dcde6a14dc09c22815bdf77",
      "blockNumber": "0x9511ca",
      "gasUsed": "0x66dc",
      "effectiveGasPrice": "0x1d4d74",
      "from": "0x5c14608e0b38ee4473fe2e973027f62a73f088e4",
      "to": "0xd3482a9b5a5ab89174ea6475e06c68d772885bd7",
      "contractAddress": null
    }
  ],
  "libraries": [],
  "pending": [],
  "returns": {},
  "timestamp": 1764876866042,
  "chain": 11155111,
  "commit": "771a647"
}